:200000000C94A4000C94CC000C94CC000C94CC000C94CC000C94CC000C94CC000C941C0A4E
:200020000C94CC000C94CC000C94CC000C94CC000C94CC000C94CC000C94CC000C94CC0060
:200040000C94D00A0C94CC000C949E0A0C94780A0C94CC000C94CC000C94CC000C94CC00A0
:200060000C941A0B0C94CC0007634236B79BD8A71A39685618AEBAAB558C1D3CB7CC5763E9
:20008000BD6DEDFD753EF6177231BF000000803F08000000BE922449123EABAAAA2ABECDA2
:2000A000CCCC4C3E00000080BEABAAAAAA3E00000000BF000000803F0000000000084178BA
:2000C000D3BB4387D1133D190E3CC3BD4282AD2B3E68EC8276BED98FE1A93E4C80EFFFBE38
:2000E00001C4FF7F3F000000000000000000240027002A0000000000230026002900000097
:20010000000800020100000304070000000000000000010204081020408001020408102088
:2001200001020408102000000000250028002B0004040404040404040202020202020303D6
:20014000030303030200390C11241FBECFEFD8E0DEBFCDBF11E0A0E0B1E0ECE4FFE202C026
:2001600005900D92AA3DB107D9F723E0AAEDB1E001C01D92AF37B207E1F710E0C4EAD0E07C
:2001800004C02197FE010E949E17C33AD107C9F70E94830C0C94A4170C9400000895089592
:2001A000AF92BF92CF92DF92EF92FF920F931F93CF93DF936C017B018B01040F151FEB01F9
:2001C0005E01AE18BF08C017D10759F06991D601ED91FC910190F081E02DC6010995892B37
:2001E00079F7C501DF91CF911F910F91FF90EF90DF90CF90BF90AF900895FC01538D448DF4
:20020000252F30E0842F90E0821B930B541710F0CF96089501970895FC01918D828D9817A1
:2002200061F0A28DAE0FBF2FB11D5D968C91928D9F5F9F73928F90E008958FEF9FEF0895AF
:20024000FC01918D828D981731F0828DE80FF11D858D90E008958FEF9FEF0895FC01918DAD
:20026000228D892F90E0805C9F4F821B91098F73992708958AEC92E00E942E0121E0892BD9
:2002800009F420E0822F089580E090E0892B29F00E943A0181110C9400000895FC01A48D9C
:2002A000A80FB92FB11DA35ABF4F2C91848D90E001968F739927848FA689B7892C93A089C5
:2002C000B1898C91837080648C93938D848D981306C00288F389E02D80818F7D808308956F
:2002E000EF92FF920F931F93CF93DF93EC0181E0888F9B8D8C8D98131AC0E889F9898081A5
:2003000085FF15C09FB7F894EE89FF896083E889F98980818370806480839FBF81E090E0C3
:20032000DF91CF911F910F91FF90EF900895F62E0B8D10E00F5F1F4F0F731127E02E8C8D89
:200340008E110CC00FB607FCFACFE889F989808185FFF5CFCE010E944E01F1CFEB8DEC0F72
:20036000FD2FF11DE35AFF4FF0829FB7F8940B8FEA89FB8980818062CFCFCF93DF93EC0191
:20038000888D8823B9F0AA89BB89E889F9898C9185FD03C0808186FD0DC00FB607FCF7CF49
:2003A0008C9185FFF2CF808185FFEDCFCE010E944E01E9CFDF91CF910895833081F028F475
:2003C000813099F08230A9F008958730A9F08830C9F08430B1F4809180008F7D03C0809170
:2003E00080008F7780938000089584B58F7784BD089584B58F7DFBCF8091B0008F77809341
:20040000B00008958091B0008F7DF9CFCF93DF93282F30E0F901E250FF4F8491F901EE5EEA
:20042000FE4FD491F901E05DFE4FC491CC23A1F081110E94DD01EC2FF0E0EE0FFF1FEC505D
:20044000FF4FA591B491EC91ED2381E090E009F480E0DF91CF91089580E090E0FACF1F9360
:20046000CF93DF93282F30E0F901E250FF4F8491F901EE5EFE4FD491F901E05DFE4FC491E1
:20048000CC23A9F0162F81110E94DD01EC2FF0E0EE0FFF1FEA5DFE4FA591B4918FB7F89496
:2004A000EC91111108C0D095DE23DC938FBFDF91CF911F910895DE2BF8CF90910A018913FD
:2004C0000BC0E4E4F1E0E4919FEF90930A01E13049F028F0E23061F060E00C942F0210920F
:2004E0006E00FACF90916F009D7F90936F00F4CF909170009D7F9093700091E09093B00040
:200500009091B100987F94609093B1001092B300E3CFCF93DF9390E0FC01EE5EFE4F249194
:20052000805D9E4FFC0184918823D1F090E0880F991FFC01E651FF4FA591B491FC01EA5D73
:20054000FE4FC591D491623071F49FB7F8943C91822F809583238C93E8812E2B28839FBF97
:20056000DF91CF9108958FB7F894EC912E2B2C938FBFF6CF4F925F926F927F928F929F925E
:20058000AF92BF92CF92DF92EF92FF920F931F93CF93DF9300D000D01F92CDB7DEB78C01C6
:2005A0002A013B0180910A018930C9F08F3F09F47FC00F900F900F900F900F90DF91CF9151
:2005C0001F910F91FF90EF90DF90CF90BF90AF909F908F907F906F905F904F900895E4E4D2
:2005E000F1E084918D8387FDE4CF61E089E00E9489028D81882321F09D81923009F05CC137
:200600004801B12CA12C60E072E18AE790E0A50198010E94551329833A834B835C836901AA
:200620007A0181E0C81AD108E108F1089FEFC916D104E104F10409F00CF413C160E472E4BE
:200640008FE090E0A50198010E94551369017A0181E0C81AD108E108F1089D81923009F0B6
:2006600098C08FEFC816D104E104F10409F00CF4DDC160E970ED83E090E0A50198010E9426
:20068000551369017A0191E0C91AD108E108F1088FEFC816D104E104F10411F00CF0A3C192
:2006A00083E09091B100987F892B8093B100E1C089E080930A01E4E4F1E094919D839F3F92
:2006C00009F477CF913029F158F0923009F43FC08D8187FD6ECF61E089E00E9489028CCFF5
:2006E00014BC15BC84B5826084BD85B5816085BDE9E3F1E0E491F0E0EE0FFF1FEA5DFE4F0F
:2007000085919491EBE1F1E0E491E093BD021D826CCF1092800010928100809181008860C1
:200720008093810080918100816080938100E9E3F1E0E491F0E0EE0FFF1FEA5DFE4F859177
:200740009491EBE1F1E0E491E093BC024ECF1092B0001092B1008091B00082608093B00009
:200760008091B10081608093B100E9E3F1E0E491F0E0EE0FFF1FEA5DFE4F85919491909323
:20078000BB028093BA02EBE1F1E0E491E093B9022CCF9FEFC916D104E104F10409F00CF47D
:2007A00089C068E478EE81E090E0A50198010E94551369017A0181E0C81AD108E108F10841
:2007C0009D81992309F428C19FEFC916D104E104F10409F00CF41EC162E17AE780E090E0F1
:2007E000A50194010E94551369017A0181E0C81AD108E108F1089D81992309F4EBC08FEFD1
:20080000C816D104E104F10411F008F0BFC086E048CF64E274EF80E090E0A50194010E9400
:20082000551369017A0181E0C81AD108E108F10885E09FEFC916D104E104F10409F008F4F7
:2008400030CF62E17AE780E090E0A50194010E94551369017A0191E0C91AD108E108F108EC
:20086000CECF81E09D8191111CCF95B5987F892B85BD2FEF3FEFA9014114510461047104FE
:2008800009F043C09D81913009F45EC0923009F46DC091118ECEC7BC2093C6023093C702EE
:2008A0004093C8025093C90280916E00826080936E007FCE82E0D6CFB12CA12C60E072E17A
:2008C0008AE790E0A50198010E94551369017A0181E0C81AD108E108F108C114D10491E0F0
:2008E000E906F10404F591E08D81813011F680918100887F892B809381002FEF3FEFA9010D
:200900004114510461047104F9F0D801AA0FBB1FA30192010E94741328EE33E040E050E025
:200920000E948713AFCF68E478EE81E090E0A50198010E94551369017A0181E0C81AD10830
:20094000E108F10893E0D0CFD0928900C09288002093C2023093C3024093C4025093C5029C
:2009600080916F00826080936F0023CEC092B3002093BE023093BF024093C0025093C1026B
:200980008091700082608093700013CEC980DA80EB80FC809AE0F594E794D794C7949A9593
:2009A000D1F791E0C91AD108E108F10887E079CEC980DA80EB80FC808AE0F594E794D7944F
:2009C000C7948A95D1F791E0C91AD108E108F10885E04BCF8FEFC816D104E104F10409F043
:2009E00038F784E042CF68E478EE81E090E0A50198010E94551369017A0191E0C91AD10875
:200A0000E108F1088FEFC816D104E104F10411F00CF0FFCE84E045CE8FEFC816D104E10492
:200A2000F10411F00CF0D8CE83E01FCF82E039CE3FB7F8948091910290919202A0919302C3
:200A4000B091940226B5A89B05C02F3F19F00196A11DB11D3FBFBA2FA92F982F8827BC0150
:200A6000CD01620F711D811D911D42E0660F771F881F991F4A95D1F708958F929F92AF92FA
:200A8000BF92CF92DF92EF92FF926B017C010E9418054B015C01C114D104E104F104B9F0A3
:200AA0000E941805681979098A099B09683E73408105910580F321E0C21AD108E108F108BD
:200AC00088EE880E83E0981EA11CB11CE4CFFF90EF90DF90CF90BF90AF909F908F9008955F
:200AE0002FB7F89460918D0270918E0280918F02909190022FBF0895089520911B02260FF3
:200B00003327331F21323105ECF420916402FC0190E080E0243069F082E00895A0911B02E2
:200B20002191AC0145505E4FA40FB52FB11D2C930196861798F380911B02680F60931B027C
:200B400080E0089581E008951092640281E08093630210923E0261E082E10E942F0261E01F
:200B600083E10E942F02E9EBF0E080818E7F808380818D7F808388E48093B80085E48093C6
:200B8000BC000895CF93DF9391E09093FA018823B9F0C091B800D091BA008091BC008A7B4F
:200BA0008093BC0060E082E10E942F0260E083E10E942F020E94A405D093BA00C093B80006
:200BC000DF91CF9108950895E0919C0280919B02E81730F4F0E0E652FE4F808190E00895C8
:200BE0008FEF9FEF089590919C0280919B022FEF3FEF981748F4E92FF0E0E652FE4F20819A
:200C000030E09F5F90939C02C901089580919B0290919C02891B990B0895CF92DF92EF92F9
:200C2000FF920F931F93CF93DF937C01CB018A0120916A02222389F0EB016B01C40ED51E2F
:200C4000CC15DD0569F06991D701ED91FC910190F081E02DC7010995F3CF642F0E947D05AD
:200C6000C801DF91CF911F910F91FF90EF90DF90CF900895CF93DF931F92CDB7DEB7698388
:200C800020916A022223F9F020919902203258F021E030E0FC013383228390E080E00F904B
:200CA000DF91CF91089580919A02E82FF0E0E559FD4F998190838F5F80939A028093990231
:200CC00081E090E0ECCF61E0CE0101960E947D05F7CFCF92DF92EF92FF920F931F93CF935D
:200CE000DF93FC01C48121E020936A02C0938B0210929A02109299028385682B87E693E04A
:200D00000E943A06D0919902D13208F092C00E9418056B017C0180916402811165C082E070
:200D20008093640281E0809363028FEF8093620210926102D0936002ABE6B2E0E0E4F2E0E9
:200D400080E0D81385C010923F0280913F02CC0FC82BC0933F0280913E02813009F07CC035
:200D600010923E020E9418056B017C0180913F028093BB008091660290916702A09168022B
:200D8000B0916902892B8A2B8B2B99F00E94180500916602109167022091680230916902F6
:200DA0006C197D098E099F090617170728073907E0F18091BC0083FDD9CF85EC8093BC0039
:200DC0000E9418056B017C0180916402823009F445C0809162028F3F61F180916202803284
:200DE00041F18091620225C08091660290916702A0916802B0916902892B8A2B8B2B09F401
:200E00008ACF0E941805009166021091670220916802309169026C197D098E099F09061709
:200E200017072807390708F076CF809165020E94C20510929A021092990210926A02DF910E
:200E4000CF911F910F91FF90EF90DF90CF9008959D9191938F5F75CF85EEB0CF809166027A
:200E600090916702A0916802B0916902892B8A2B8B2B09F4A9CF0E941805009166021091B4
:200E8000670220916802309169026C197D098E099F09061717072807390708F095CFC5CFBE
:200EA00090E080E00895CF9386E00E940602C1E0892B09F0C0E087E00E940602892B09F4A3
:200EC000CE5F88E00E940602892B09F4CC5F8AE00E940602892B09F4C85F8C2FCF91089553
:200EE0008F929F92AF92BF920F931F93CF93DF93CDB7DEB7A1970FB6F894DEBF0FBECDBF4E
:200F000019A2423008F44AE08E010F5D1F4F842E912CB12CA12CA50194010E948713E62F70
:200F2000B901CA01EA3044F5E05DD801EE938D01232B242B252B79F790E080E0109769F087
:200F4000FD0101900020E9F73197AF014A1B5B0BBD0183E793E00E94D000A1960FB6F8942A
:200F6000DEBF0FBECDBFDF91CF911F910F91BF90AF909F908F900895E95CD7CFFC01019069
:200F80000020E9F73197AF01481B590BBC0183E793E00C94D0000F931F93CF938C01C62FD0
:200FA0000E9469066C2F6460C8010E9469066C2F6B7FC8010E94690683EC90E00197F1F729
:200FC000CF911F910F9108950F931F93CF93DF938C01D62FC42F607F642B0E94CB0780E1D4
:200FE000D89FB00111246C2BC801DF91CF911F910F910C94CB0740E061E083E793E00E94C2
:20100000E4078BE39FE10197F1F7089541E00E94E40781E090E00895CF92DF92EF92FF92DA
:201020006C01990FEE08FF08F7FE16C041E06DE283E793E00E94E40766277727CB016C197D
:201040007D098E099F094AE00E9470070196FF90EF90DF90CF9008954AE0C701B601FF9040
:20106000EF90DF90CF900C947007CF93DF93CDB7DEB728970FB6F894DEBF0FBECDBF88E0B1
:20108000EFE0F1E0DE01119601900D928A95E1F780917C0381111AC08FEF90E0880F991FCA
:2010A00021E030E02C0F3D1F820F931FFC016081606840E083E793E028960FB6F894DEBFF6
:2010C0000FBECDBFDF91CF910C94E40781E0E5CF5F926F927F928F929F92AF92BF92CF92FF
:2010E000DF92EF92FF920F931F93CF93DF934C01562E8091B7029091B8022091000130915C
:2011000001018217930711F44423B9F0009709F081C00E94FB078BE791E00E94BE070E9424
:2011200035088AE891E00E94BE078091B7029091B80290930101809300010BE211E093E3F6
:20114000692E91E0792E2AE0A22EB12C3BECE32E37E0F32E4BE3C42E4FE1D42EC401B501EC
:201160000E9476174B01EC0160E08DE00E942F0260E08AE00E942F0260E08BE00E942F028C
:2011800060E08CE00E942F02C7010197F1F760E084E10E942F02CC0FDD1FC95EDE4FD8818C
:2011A000C8E06D2F661F6627661F86E10E942F02DD0F61E085E10E942F0260E085E10E946C
:2011C0002F02C15071F761E084E10E942F02C7010197F1F7552029F061E0F80180810E9439
:2011E0002F02C6010197F1F70E5F1F4F6016710609F0B4CFDF91CF911F910F91FF90EF9005
:20120000DF90CF90BF90AF909F908F907F906F905F9008958130910529F40E94FB078BE90E
:2012200091E081CF8230910561F40E94FB0785EA91E00E94BE070E943508C4010E940C080B
:2012400074CF8330910579F50E94FB0783EB91E00E94BE070E943508C4010E940C088EEBD7
:2012600091E00E94BE070E9470050091B1021091B2022091B3023091B402601B710B820B85
:20128000930B28EE33E040E050E00E94871364E170E080E090E0621B730B840B950B4AE042
:2012A0000E94700742CF8430910529F40E94FB0785EC91E038CF059709F037CF0E94FB07D1
:2012C00081ED91E0B6CF85ED8093BC008091660290916702A0916802B09169020796A11DC4
:2012E000B11D23E0B695A795979587952A95D1F72091BC0024FD03C0109264020895409100
:201300006602509167026091680270916902452B462B472B69F30097A105B10541F025E379
:201320002A95F1F700000197A109B109E1CF809165020C94C2056091A40290E080E00E9472
:2013400047136091A30281E090E00C9447130F931F93CF93DF9344EC59E060E070E08AEF38
:2013600090E00E94BA028091B5029091B6022091A3023091A4022817390734F49093A402D1
:201380008093A3020E949B0961E082E00E942F0261E083E00E942F0261E084E00E942F02EA
:2013A00061E085E00E942F02D0E0C0E004EC1FEFCE01B8010E9476176F5F7F4F617040E022
:2013C0008091B5029091B6020E9468082196CE3581E0D80729F560E082E00E942F0260E08D
:2013E00083E00E942F0260E084E00E942F0260E085E00E942F0240E060E08091B50290917F
:20140000B6020E9468081092B8021092B7021092A6021092A502DF91CF911F910F910895FB
:20142000CC38D10529F640ED57E060E070E088EC90E00E94BA02BCCF1F920F920FB60F923A
:2014400011242F933F934F935F936F937F938F939F93AF93BF93EF93FF938091BE029091ED
:20146000BF02A091C002B091C102892B8A2B8B2BD1F19091B902E091BA02F091BB0280818B
:20148000892780838091BE029091BF02A091C002B091C102181619061A061B069CF48091C0
:2014A000BE029091BF02A091C002B091C1020197A109B1098093BE029093BF02A093C002EB
:2014C000B093C102FF91EF91BF91AF919F918F917F916F915F914F913F912F910F900FBE3A
:2014E0000F901F90189580910A010E945D02EACF1F920F920FB60F9211242F933F934F93B8
:201500005F936F937F938F939F93AF93BF93EF93FF938AEC92E00E944E01FF91EF91BF9190
:20152000AF919F918F917F916F915F914F913F912F910F900FBE0F901F9018951F920F92F2
:201540000FB60F9211242F938F939F93EF93FF93E091DA02F091DB028081E091E002F09146
:20156000E10282FD1BC090818091E3028F5F8F732091E402821741F0E091E302F0E0E65377
:20158000FD4F958F8093E302FF91EF919F918F912F910F900FBE0F901F9018958081F4CF98
:2015A0001F920F920FB60F9211242F933F938F939F93AF93BF9380918D0290918E02A09140
:2015C0008F02B091900230918C0223E0230F2D3758F50196A11DB11D20938C0280938D026C
:2015E00090938E02A0938F02B09390028091910290919202A0919302B09194020196A11D54
:20160000B11D8093910290939202A0939302B0939402BF91AF919F918F913F912F910F90EF
:201620000FBE0F901F90189526E8230F0296A11DB11DD2CF1F920F920FB60F9211242F932E
:201640003F934F935F936F937F938F939F93AF93BF93EF93FF938091B900887F803609F450
:201660004AC0F0F5883209F4A7C018F5803109F49BC0B8F4882309F4F9C0883009F494C031
:20168000FF91EF91BF91AF919F918F917F916F915F914F913F912F910F900FBE0F901F9030
:2016A0001895883109F488C0803251F78093620214C0803409F49DC040F48033B9F38833DE
:2016C000F9F68093620285ECB0C0803509F485C0883509F496C0883499F60E946309D0CFC4
:2016E000883909F48CC038F5883729F050F4883611F0803729F683E08093640210923D0245
:2017000057C0883809F47BC0803919F0803809F0B7CF80913D02803208F071C0E0913D02E6
:2017200081E08E0F80933D028091BB00F0E0E35EFD4F80833DC0803B39F0E0F4803A09F4C1
:2017400079C0883A09F09CCF84E08093640210921C0210921B02E0919702F091980209950B
:2017600080911B0281110FC081E080931B021092FB0109C0803C09F4A6CF883C09F4A3CF81
:20178000883B09F07DCFE0911C0281E08E0F80931C02F0E0E550FE4F80818093BB00909141
:2017A0001C0280911B0229C080913F028093BB0085EC8093BC0064CF90916102809160026A
:2017C000981758F5E091610281E08E0F80936102F0E0E05CFD4F8081E9CFE091610281E07F
:2017E0008E0F809361028091BB00F0E0E05CFD4F808390916102809160029817C8F285E8E2
:20180000D8CFE091610281E08E0F809361028091BB00F0E0E05CFD4F8083809163028111AA
:201820005CCF81E080933E0284EA8093BC001092640226CF85EC8093BC0010926402809136
:201840003D02803230F4E0913D02F0E0E35EFD4F108260913D0270E0E0919502F091960233
:201860008DE192E0099510923D020ACF1092620234CFEAECF2E01382128288EE93E0A0E0ED
:20188000B0E084839583A683B7832FE431E03183208325EC30E03587248724EC30E0378755
:2018A000268720EC30E0318B208B21EC30E0338B228B22EC30E0358B248B26EC30E0378BFF
:2018C000268B118E128E138E148EE7E6F3E01382128284839583A683B78381E691E091839E
:2018E0008083E3E7F3E01382128283E791E09183808387E2848380E1808782E08187128653
:2019000088E083870895789484B5826084BD84B5816084BD85B5826085BD85B5816085BD3A
:2019200080916E00816080936E001092810080918100826080938100809181008160809315
:201940008100809180008160809380008091B10084608093B1008091B00081608093B00032
:2019600080917A00846080937A0080917A00826080937A0080917A00816080937A00809167
:201980007A00806880937A001092C100E091DA02F091DB0282E08083E091D602F091D70242
:2019A0001082E091D802F091D9028FEC80831092E202E091DE02F091DF0286E08083E0915D
:2019C000DC02F091DD02808180618083E091DC02F091DD02808188608083E091DC02F09179
:2019E000DD02808180688083E091DC02F091DD0280818F7D808310929C0210929B0210923C
:201A00009A02109299020E94A4058EEC90E090939802809397028FEC90E090939602809396
:201A200095021092780380917C03823018F098E09093780390917D03992339F0813029F43E
:201A40008091780384608093780362E370E080E090E00E943D0560917E0383E793E00E944E
:201A6000690668EE73E080E090E00E943D0560E383E793E00E94CB07CBE4D6E4CE01019736
:201A8000F1F760E383E793E00E94CB072197F1F760E383E793E00E94CB0783E592E0019724
:201AA000F1F760E283E793E00E94CB0760917803606240E083E793E00E94E40784E080937C
:201AC000790340E06CE083E793E00E94E4070E94FB0782E080937A0340E066E083E793E0DB
:201AE0000E94E40740E062E083E793E00E94E4078BE39FE10197F1F761E084E10E9489024C
:201B000061E085E10E94890261E086E10E94890261E08DE00E94890261E08AE00E94890269
:201B200061E08BE00E94890261E08CE00E94890261E082E00E94890261E083E00E94890251
:201B400061E084E00E94890261E085E00E94890262E086E00E94890262E087E00E94890235
:201B600062E088E00E94890262E08AE00E94890290E080E00E943F13C82F81E090E00E9487
:201B80003F132C2F30E0322F2227820F932F911D9093A4028093A302019621F41092A40268
:201BA0001092A302D4E08D2E912CA12CB12C22242A94322C44244394512CC091B702D0917F
:201BC000B802209709F03EC12091B5023091B6028091A5029091A602019660ED77E00E945D
:201BE00076179093A6028093A502883E43E0940764F02091A3023091A402895E934061E043
:201C00008E3C934038F060E005C061E08F3C53E095079CF740E0C9010E946808B3E4EB2EE0
:201C2000B1E0FB2E10E000E0F7018081F2E0EF0EF11C0E940602892B49F4C201002E02C0F7
:201C4000880F991F0A94E2F7C82BD92B0F5F1F4F0430110549F7CF30D10509F043C080917F
:201C60009F029091A002A091A102B091A202892B8A2B8B2B51F40E94700560939F02709335
:201C8000A0028093A1029093A2020E94700500919F021091A0022091A1023091A202601B65
:201CA000710B820B930B613D77408105910510F140E060E090E080E00E94680844EF51E065
:201CC00060E070E084EF91E00E94BA021092A4021092A3020E949B096CEB72E080E090E0E4
:201CE0000E943D0510929F021092A0021092A1021092A202CE010197029738F0C430D105FC
:201D000021F0C830D10509F07AC080919D0290919E02892B31F40E94700570939E026093BA
:201D20009D020E94700520919D0230919E028901330F220B330BAB01BC01401B510B620B78
:201D4000730B433351056105710508F45CC082E090E0C130D10531F0C230D10509F060C0AA
:201D600083E090E09093B8028093B7021092B6021092B5023092B0022092AF023092AC02ED
:201D80002092AB023092A8022092A7021092AA021092A9021092B1021092B2021092B30280
:201DA0001092B40250920301409202015092050140920401509207014092060150920901A2
:201DC000409208010E947005611571058105910511F00E9436130E9470057093AE02609360
:201DE000AD0240E060E08091B5029091B6020E94680860ED77E080E090E00E943D05109227
:201E00009E0210929D0280E090E0892B09F4D5CE0E943A01882309F4CDCE0E940000CACE63
:201E2000C430D10529F4D093B802C093B7029ECF289709F09BCF45E050E05093B80240933E
:201E4000B70294CFC230D10509F007C18091A9029091AA0201979093AA028093A90297FF99
:201E60008AC08091AB029091AC0297FD03C00E94A709C9CF0E94E712A50194010E9455136A
:201E80007093AC026093AB022091A7023091A80226173707B9F40E94E7122AE030E040E02F
:201EA00050E00E945513663071058105910554F40E94E712A50194010E9455137093AC02E7
:201EC0006093AB02C091AB02D091AC02D093A802C093A7020091AF021091B002662777278C
:201EE000601B710B072E000C880B990B0E94F0132DEC3CEC4CE45DE30E9459149B01AC01C5
:201F00006DEC7CEC8CEC9FE30E94C61420E030E046E153E40E9459146B017C0120E030E014
:201F200040E251E40E9454146AE070E0181624F4C701B6010E94B8137093AA026093A90227
:201F40000F5F1F4F1093B0020093AF02F3E0660F771FFA95E1F7AB01770F660B770BCC0FC7
:201F6000DD1FC55CDE4F888199810E94BA021093B6020093B50273E3C72E71E0D72EE3E489
:201F8000EE2EE1E0FE2E8701D0E0C0E08091AB029091AC0261E08C179D0771F0F8018081F0
:201FA0000E940602892B39F461E08091A9029091AA0206970CF460E0F6018081F2E0CF0E48
:201FC000D11C0E942F0221960E5F1F4FC430D105E9F640E061E08091B5029091B6020E9462
:201FE000680802E011E0D0E0C0E0F7018081F2E0EF0EF11C0E9406026C01892B11F5F801AF
:20200000808191810197E9F48091AB029091AC0297FD17C0C817D907E9F48091B5029091BB
:20202000B60201969093B6028093B50241E061E00E9468083092AC022092AB0289E00E945E
:202040005D02F801C192D1928F012196C430D10561F6D9CE0E94A709F1CFC330D10509F08F
:20206000EEC040E061E08091B5029091B6020E9468088091B1029091B202A091B302B091DE
:20208000B402892B8A2B8B2BF9F40E9470056093B1027093B2028093B3029093B4020E94C7
:2020A00070050091B1021091B2022091B3023091B402601B710B820B930B61327E44810538
:2020C000910508F4A0CED3CE8091A9029091AA0218161906E4F10E94E712A50194010E943C
:2020E00055137093AC026093AB022091A7023091A8022617370751F40E94E712A5019401CC
:202100000E9455137093AC026093AB022091AB023091AC028091A7029091A8022817390793
:2021200051F40E94E712A50194010E9455137093AC026093AB028091AB029091AC02909379
:20214000A8028093A7025092AA024092A90253E3E52E51E0F52E63E4C62E61E0D62E86016A
:20216000D0E0C0E06090AB027090AC0261E0C615D70571F0F80180810E940602892B39F4E6
:2021800061E08091A9029091AA0206970CF460E0F7018081F2E0EF0EF11C0E942F02219639
:2021A0000E5F1F4FC430D105E9F6F301EE0FFF1FE55CFE4F44E650E060E070E08081918101
:2021C0000E94BA0202E011E0D0E0C0E0F6018081F2E0CF0ED11C0E9406027C01892B31F5E9
:2021E000F80180819181019709F58091AB029091AC0297FD1BC08C179D07A9F48091B50295
:202200009091B60201969093B6028093B50241E061E00E9468083092AC022092AB021092C4
:20222000AA021092A90289E00E945D02F801E192F1928F012196C430D10541F630CFC43011
:20224000D10509F0D0C08091AF029091B00297FF02C090E080E09093B0028093AF026091D8
:20226000AD027091AE02072E000C880B990B611571058105910511F00E94361310E000E0C2
:202280008091AF029091B002081719072CF50E94E712A50194010E945513EB01CC0FDD1FA6
:2022A000FE01E55CFE4F48EE53E060E070E0808191810E94BA02CD5CDE4FC88161E08C2F8C
:2022C0000E942F0260E08C2F0E942F0289E00E945D020F5F1F4FD4CF6091AD027091AE0223
:2022E000072E000C880B990B611571058105910511F00E94361310E000E08091AF029091BF
:20230000B002081719070CF068C00E945307282F30E0833098F02430310509F458C0283013
:20232000310509F0A4CDC1E0823069F0843009F44EC0C3E0883039F0CFEF05C0232BE9F262
:20234000C0E0813081F7D0E0FE01EE0FFF1FE55CFE4F48EE53E060E070E0808191810E94AE
:20236000BA02E091AB02F091AC02EE0FFF1FED5CFE4F61E080810E942F020E945307811100
:2023800028C060E082E00E942F0260E083E00E942F0260E084E00E942F0260E085E00E94AC
:2023A0002F020E94E712A50194010E945513C617D70709F05CCD8091B5029091B6020196F7
:2023C0009093B6028093B5020F5F1F4F96CFC2E0BACF89E00E945D02D0CF01969093B00277
:2023E0008093AF0210CD259709F041CD40E061E08091B5029091B6020E9468088091B102A1
:202400009091B202A091B302B091B402892B8A2B8B2B39F50E94E71220EA3FE040E050E0A9
:202420000E94551328E833E140E050E0261B370B480B590BCA01B9010E943D050E94700564
:202440006093B1027093B2028093B3029093B40261E082E00E942F0261E085E00E942F028F
:20246000D2CC44EC59E060E070E08EEE92E00E94BA0203E411E082E0C82E81E0D82ED0E032
:20248000C0E0F80180810E5F1F4F0E9406027C01892B81F5F60180819181019759F50E94E4
:2024A00070052091B1023091B202CB01821B930B9093B6028093B502209731F541E061E0E3
:2024C0000E94680861E082E00E942F0260E085E00E942F0248EE53E060E070E085E191E02C
:2024E0000E94BA0260EA7FE080E090E00E943D050E94A709F601E192F1926F012196C430C7
:20250000D10509F0BECF7FCCC330D10509F07BCC41E061E00E94680860E082E00E942F0222
:2025200061E085E00E942F0248EE53E060E070E08FE991E0D5CF8F929F92AF92BF92CF9257
:20254000DF92EF92FF92CF93DF93EC01688179818A819B81611571058105910521F464E2CA
:2025600079ED8BE597E02DE133EF41E050E00E94551349015A019B01AC01A7EAB1E40E94CD
:2025800074136B017C01ACEEB4EFA50194010E948213C60ED71EE81EF91EF7FE06C081E01A
:2025A000C81AD108E10880E8F80AC882D982EA82FB82C701B6019F77DF91CF91FF90EF900C
:2025C000DF90CF90BF90AF909F908F9008958F929F92AF92BF92CF92DF92EF92FF926091FB
:2025E0000B0170910C0180910D0190910E01611571058105910521F464E279ED8BE597E0C2
:202600002DE133EF41E050E00E94551349015A019B01AC01A7EAB1E40E9474136B017C0109
:20262000ACEEB4EFA50194010E948213C60ED71EE81EF91EF7FE06C081E0C81AD108E10845
:2026400080E8F80AC0920B01D0920C01E0920D01F0920E01C701B6019F77FF90EF90DF9020
:20266000CF90BF90AF909F908F90089560930B0170930C0180930D0190930E010895F999F1
:20268000FECF92BD81BDF89A992780B50895262FF999FECF1FBA92BD81BD20BD0FB6F89474
:2026A000FA9AF99A0FBE01960895052E97FB1EF400940E946C1357FD07D00E94871307FCFC
:2026C00003D04EF40C946C1350954095309521953F4F4F4F5F4F08959095809570956195E5
:2026E0007F4F8F4F9F4F08950E94A913A59F900DB49F900DA49F800D911D11240895B7FF6E
:202700000C9474130E947413821B930B0895A1E21A2EAA1BBB1BFD010DC0AA1FBB1FEE1FB0
:20272000FF1FA217B307E407F50720F0A21BB30BE40BF50B661F771F881F991F1A9469F71F
:2027400060957095809590959B01AC01BD01CF010895A29FB001B39FC001A39F700D811D6F
:202760001124911DB29F700D811D1124911D08950E94BF136894B1110C944E1408950E9417
:20278000331488F09F5798F0B92F9927B751B0F0E1F0660F771F881F991F1AF0BA95C9F758
:2027A00014C0B13091F00E944D14B1E008950C944D14672F782F8827B85F39F0B93FCCF3CE
:2027C000869577956795B395D9F73EF490958095709561957F4F8F4F9F4F0895E89409C0DB
:2027E00097FB3EF490958095709561957F4F8F4F9F4F9923A9F0F92F96E9BB279395F695B5
:20280000879577956795B795F111F8CFFAF4BB0F11F460FF1BC06F5F7F4F8F4F9F4F16C04A
:20282000882311F096E911C0772321F09EE8872F762F05C0662371F096E8862F70E060E09E
:202840002AF09A95660F771F881FDAF7880F9695879597F9089557FD9058440F551F59F055
:202860005F3F71F04795880F97FB991F61F09F3F79F087950895121613061406551FF2CFBB
:202880004695F1DF08C0161617061806991FF1CF86957105610508940895E894BB276627CB
:2028A0007727CB0197F908950E94501508F48FEF08950E946C140C94B2150E94A41538F057
:2028C0000E94AB1520F0952311F00C9474150C947A1511240C944E140E942B1470F3959FC6
:2028E000C1F3950F50E0551F629FF001729FBB27F00DB11D639FAA27F00DB11DAA1F649FC2
:202900006627B00DA11D661F829F2227B00DA11D621F739FB00DA11D621F839FA00D611D69
:20292000221F749F3327A00D611D231F849F600D211D822F762F6A2F11249F5750409AF07A
:20294000F1F088234AF0EE0FFF1FBB1F661F771F881F91505040A9F79E3F510580F00C94A6
:2029600074150C944E145F3FE4F3983ED4F3869577956795B795F795E7959F5FC1F7FE2B64
:20298000880F911D9695879597F90895FA01EE0FFF1F309621053105A1F16115710561F473
:2029A0008038BFE39B0749F168949038810561F08038BFEF9B0741F099234AF5FF3FE105EE
:2029C0003105210519F1E8940894E795D901AA2329F4AB2FBE2FF85FD0F310C0FF5F70F4C6
:2029E000A695E0F7F73950F019F0FF3A38F49F779F930DD00F9007FC9058089546F00C94C5
:202A00007A1560E070E080E89FE308954FE79F775F934F933F932F930E940D162F913F9107
:202A20004F915F910E9459140C941E1529F416F00C9474150C944D140C947A150E9433147F
:202A4000A8F39638A0F707F80F92E8942BE33AEA48EB5FE70E946F140F920F920F924DB7A3
:202A60005EB70F920E945516E8E6F0E00E947D154F915F91EF91FF91E595EE1FFF1F49F003
:202A8000FE57E0684427EE0F441FFA95E1F74195550B0E94CF150F9007FE0C94C3150895F2
:202AA000990F0008550FAA0BE0E8FEEF16161706E807F907C0F012161306E407F50798F000
:202AC000621B730B840B950B39F40A2661F0232B242B252B21F408950A2609F4A140A69536
:202AE0008FEF811D811D089597F99F6780E870E060E008959FEF80EC0895DF93CF931F9337
:202B00000F93FF92EF92DF927B018C01689406C0DA2EEF010E946C14FE01E894A591259144
:202B2000359145915591A6F3EF010E94A116FE019701A801DA9469F7DF90EF90FF900F9106
:202B40001F91CF91DF91089500240A941616170618060906089500240A9412161306140666
:202B600005060895092E0394000C11F4882352F0BB0F40F4BF2B11F460FF04C06F5F7F4F35
:202B80008F4F9F4F08959B01AC0160E070E080E89FE30C94F6160C9474150C9468170E9473
:202BA0003314D8F39923C9F3940F511DA3F39150504094F059F0882332F0660F771F881F27
:202BC00091505040C1F79E3F51052CF7880F911D9695879597F908955F3FACF0983E9CF021
:202BE000BB27869577956795B79508F4B1609395C1F7BB0F58F711F460FFE8CF6F5F7F4FC7
:202C00008F4F9F4FE3CF0C944E1416F00C9468170C947A1568940C9474150E943314A8F337
:202C20009923C1F3AEF3DF93CF931F930F93FF92C92FDD2788232AF02197660F771F881F9F
:202C4000DAF720E030E040E85FEB9FE3883920F0803E38F021968F770E948A16E0E9F0E050
:202C600004C00E948A16EDEBF0E00E947D158B01BE01EC01FB2E6F5771097595771F880B9E
:202C8000990B0E94F01328E132E741E35FE30E946C14AF2D9801AE01FF900F911F91CF91DE
:202CA000DF910E94A1160C94B215FA01DC01AA0FBB1F9B01AC01BF5728F4222733274427F0
:202CC000507820C0B75190F4AB2F0024469537952795011CA395D2F3002071F0220F331F41
:202CE000441FB395DAF30ED00C94891661307105A0E88A07B94630F49B01AC016627772788
:202D000088279078309621F0208331834283538308955058BB27AA270E94A1160C94B2157B
:202D20000E94A41538F00E94AB1520F039F49F3F19F426F40C947A150EF4E095E7FB0C9444
:202D40007415E92F0E942B1458F3BA17620773078407950720F079F4A6F50C944D140EF4B0
:202D6000E0950B2EBA2FA02D0B01B90190010C01CA01A0011124FF27591B99F0593F50F4EB
:202D8000503E68F11A16F040A22F232F342F4427585FF3CF469537952795A795F0405395CB
:202DA000C9F77EF41F16BA0B620B730B840BBAF09150A1F0FF0FBB1F661F771F881FC2F7EE
:202DC0000EC0BA0F621F731F841F48F4879577956795B795F7959E3F08F0B0CF9395880F5B
:202DE00008F09927EE0F9795879508950E940A170C94B2150E94AB1558F00E94A41540F0DA
:202E000029F45F3F29F00C94741551110C944E140C947A150E942B1468F39923B1F355230E
:202E200091F3951B550BBB27AA2762177307840738F09F5F5F4F220F331F441FAA1FA9F3AE
:202E400035D00E2E3AF0E0E832D091505040E695001CCAF72BD0FE2F29D0660F771F881FA1
:202E6000BB1F261737074807AB07B0E809F0BB0B802DBF01FF2793585F4F3AF09E3F51051C
:202E800078F00C9474150C944E145F3FE4F3983ED4F3869577956795B795F7959F5FC9F7D4
:202EA000880F911D9695879597F90895E1E0660F771F881FBB1F621773078407BA0720F0BD
:202EC000621B730B840BBA0BEE1F88F7E09508959F3F31F0915020F4879577956795B795A1
:202EE000880F911D9695879597F9089597FB072E16F4009407D077FD09D00E948A1707FC4A
:202F000005D03EF4909581959F4F0895709561957F4F0895AA1BBB1B51E107C0AA1FBB1F47
:202F2000A617B70710F0A61BB70B881F991F5A95A9F780959095BC01CD010895EE0FFF1F28
:202F40000590F491E02D0994F894FFCF01000100010001000100FF010000000000400014FA
:202F60000054007D0041005E005700630037003F0051007F0077000D000A000B000C00023A
:202F8000000300040005001501370172019F010600070008000A00000000007001D000FD67
:202FA00000BD012E010C012001000000003A060D065007E3050606F305E405000000000671
:202FC00008D00050077C0520202053656C6563742047616D65005354442053504420204D68
:202FE000454D203176310047414D455F4F5645520047414D455F5354414E44415244004781
:20300000414D455F5350454544002020202020200047414D455F4D454D4F52590047414D26
:20302000455F31563100FFFFFFFFFFFFFFFFFFFFFFFFFFFFFFFFFFFFFFFFFFFFFFFFFFFF4E
:20304000FFFFFFFFFFFFFFFFFFFFFFFFFFFFFFFFFFFFFFFFFFFFFFFFFFFFFFFFFFFFFFFF90
:20306000FFFFFFFFFFFFFFFFFFFFFFFFFFFFFFFFFFFFFFFFFFFFFFFFFFFFFFFFFFFFFFFF70
:20308000FFFFFFFFFFFFFFFFFFFFFFFFFFFFFFFFFFFFFFFFFFFFFFFFFFFFFFFFFFFFFFFF50
:2030A000FFFFFFFFFFFFFFFFFFFFFFFFFFFFFFFFFFFFFFFFFFFFFFFFFFFFFFFFFFFFFFFF30
:207E0000112484B714BE81FFF0D085E08093810082E08093C00088E18093C10086E08093FC
:207E2000C20080E18093C4008EE0C9D0259A86E020E33CEF91E0309385002093840096BBAD
:207E4000B09BFECF1D9AA8958150A9F7CC24DD2488248394B5E0AB2EA1E19A2EF3E0BF2E79
:207E6000A2D0813461F49FD0082FAFD0023811F0013811F484E001C083E08DD089C0823404
:207E800011F484E103C0853419F485E0A6D080C0853579F488D0E82EFF2485D0082F10E0A0
:207EA000102F00270E291F29000F111F8ED068016FC0863521F484E090D080E0DECF84364D
:207EC00009F040C070D06FD0082F6DD080E0C81680E7D80618F4F601B7BEE895C0E0D1E0ED
:207EE00062D089930C17E1F7F0E0CF16F0E7DF0618F0F601B7BEE89568D007B600FCFDCF1A
:207F0000A601A0E0B1E02C9130E011968C91119790E0982F8827822B932B1296FA010C016F
:207F200087BEE89511244E5F5F4FF1E0A038BF0751F7F601A7BEE89507B600FCFDCF97BE85
:207F4000E89526C08437B1F42ED02DD0F82E2BD03CD0F601EF2C8F010F5F1F4F84911BD0B8
:207F6000EA94F801C1F70894C11CD11CFA94CF0CD11C0EC0853739F428D08EE10CD085E9AE
:207F80000AD08FE07ACF813511F488E018D01DD080E101D065CF982F8091C00085FFFCCF0A
:207FA0009093C60008958091C00087FFFCCF8091C00084FD01C0A8958091C6000895E0E68F
:207FC000F0E098E1908380830895EDDF803219F088E0F5DFFFCF84E1DECF1F93182FE3DF47
:207FE0001150E9F7F2DF1F91089580E0E8DFEE27FF270994FFFFFFFFFFFFFFFFFFFF040425
:00000001FF
